:020000040000FA
:20000000D00600207111000847000008470000084700000847000008470000084700000886
:20002000470000084700000847000008470000084700000847000008470000084700000848
:20004000EFF3038070471EF0040F0DD0EFF3098000F1100090E80E102DE90E10EFF30980E5
:2000600090E80E102DE90E1001B400B5EFF30881EFF3098003B42DE9F00F684600F0C1FC4F
:20008000BDE8F00F03BC81F3088880F309885DF804EB1EF0040F18BF08B001B0704772B671
:2000A000074981F30888EFF3098140F00100886148614FF08070C8616FF0020E704700003F
:2000C000D0060020DFF800F041070020DFF800F059070020DFF800F001070020DFF800F0FE
:2000E0006707002038B5DFF86447DFF86457256000F080FCDFF85C0745F2555101600022E6
:20010000426000BF01600521416000BF4CF6CC4101604AF6AA210160256000F06BFC72B677
:20012000FEE780B5DFF830070068800748BFFFF7D9FF01BDDFF8241704220A60DFF8202755
:20014000504348608860086840F005000860704738B5044600250AE00120FFF7EBFFDFF89A
:20016000FC060068C003FAD500F044FC6D1CA542F2D331BD30B5DFF8EC06016801F0A00286
:20018000DFF8E41693060ED58B8CDFF8E04645681D555B1C4FF48874A34228BF0023CC8CE2
:2001A000A34218BF8B84120613D5C268120610D54B8D0A8D934204D1C16821F08001C16058
:2001C00030BD5A18127942605B1C202B28BF00234B8530BDF8B5044600F00CFCEFF31085A4
:2001E00072B6DFF88466002070853085F084B084DFF87C0620210160EFF3108072B6DFF838
:2002000074160A6842F010020A600A6A42F010020A6280F3108800BFDFF85C06416A21F44D
:20022000706141F4E0614162016821F4401141F400110160816821F4401141F48011816068
:20024000416A21F0F00141F070014162016821F4402141F400210160816821F4402141F482
:2002600080218160416821F400714160DFF80C7600207860204600F030FD38600020386107
:20028000F860B860DFF8F8052021016042F22C00786085F3108885F31088DFF8E80550F814
:2002A00024004FF44871484347F23051B0FBF1F00A2838BF0A2002D3FB2828BFFA20F062AF
:2002C000F1BD80B500F096FBDFF89C15CA8C888C90420BD0DFF89405105C521C92B24FF44A
:2002E00088739A42A8BF0022CA8402BD4FF0FF3002BD10B5FFF7E5FFDFF86C45002803D43E
:2003000021784118217010BDE06AFFF713FF03E0FFF7D7FF0028F3D5DFF840050068C00355
:20032000F6D5FFF7FEFE4FF0FF3010BD80B5FFF7E0FF002800D5D9E7DFF82C050078002856
:20034000F9D100F057FB002002BD10B5FFF7D1FF040000D5E7E7FFF7CCFF0028FAD444EA9B
:2003600000242002DFF80015096BDFF81C25891A01F1006188422CBF4FF0FF30204610BD73
:2003800038B50546DFF8E04420782818207001E080F3108800F02EFBEFF3108072B6DFF84C
:2003A000EC148A6812060CD5218D0A191571491C89B22029A8BF0021628D9142E8D021856A
:2003C00005E0EAB20A608A6842F080028A6080F3108831BD10B504465520FFF7D1FFDFF888
:2003E0008804552101702046BDE81040C8E7DFF8780400784042C0B2C2E738B5DFF86844A8
:20040000258D00F0F7FA608D8542FAD10520BDE832409DE62DE9F0470446DFF84C54286B6A
:2004200010B94FF0FF3030E0EFF3108A72B6FFF749FEDFF85C74F020386040F2012078601A
:20044000FFF744FE05F23408A146402658F8040B49F8040BFFF73AFE761EF7D1786820F0BB
:20046000010078608AF31088FFF734FE05F23400402150F8042B54F8043B9A4218BF6FF0C6
:20048000030002D1491EF4D10020BDE8F08738B5044600F0AFFAFFF715FEFFF717FEDFF863
:2004A000F053F020286040F2022040EAC4006860686840F480306860FFF708FE686820F0FF
:2004C00002006860BDE83140FFF704BE400C40044FF4004104D1DFF8BC038108C1F5004185
:2004E00000F1006050F8042B12F1010F01D000207047491EF6D10120704770B5044600F014
:2005000079FADFF86453286B002802D14FF0FF3070BD14B1FFF7E2FDF8E7DFF8784326463A
:2005200009E0001DFFF7B3FF3046FFF7CFFF0028ECD006F50036286B864220D23046FFF705
:20054000C5FF0028F5D1700CEBD1B4F5804F03D80120FFF79CFF02E0B4F5004F03D80220D5
:20056000FFF795FF02E0B4F5404F03D80320FFF78EFF02E0B4F1011FD6D20420D2E700200A
:2005800070BD10B5C44C606C800011D5AF480168AF4A91420CD1616C01F0010141F080713C
:2005A000616400210160B8484068BDE810400047BA4820602062002060606062A060A06268
:2005C000B7482061206344F23000606160631420FFF7BEFDA848016821F00C010160C16848
:2005E00021F00C0141F00401C16000BF00BF00BF01690169016901698907D4D4016989076F
:20060000D1D400698007CED4606C00F0010040F08070606410BD2DE9F047FFF7B2FF00F051
:2006200045F99D489D4901600162002141604162816081629A490161016344F23001416112
:20064000416300F0C7FC022000F0A4FA002848BF0020854C206300F0F2F99249252000F005
:200660006EFA00F0C7F90920FFF7B4FDDFF818A2DFF8108201E0FFF754FDFFF73AFE07003B
:20068000FBD45528F7D12070FFF733FE0700F4D4422830D0452800F0A1804A2800F0C7802F
:2006A000522852D0562804D057286BD05A2810D0E3E7FFF73BFE0028DFD45620FFF78AFE68
:2006C0002520FFF75DFE0020FFF75AFEFFF78FFED3E7FFF72BFE0028CFD45A20FFF77AFE07
:2006E000206BA0EB0A0000F10060070A00F0DCF8C7F30720E8E7FFF7FCFD0700BDD4FFF787
:2007000015FE0028B9D407F0F000F02807BF07F00F004FF4E131781C4FF4167101FB00F5A2
:200720004220FFF757FE00F0BFF8FFF760FEFFF764FE012002E0401C0D289ED258F8201035
:20074000A942F8D1FFF746FD97E7FFF7FEFD070093D4FFF7EBFD00288FD45220FFF73AFEC6
:2007600000F0A2F847F30720C0B2FFF709FE0AEB07274FF4807517F8010BFFF701FE6D1E29
:20078000F9D1A3E7FFF7E1FD0700E5D404F234054FF000090026FFF7ACFD0028DCD4705598
:2007A000761C082EF7DB083509F10809B9F1FF0FF0DDFFF7BBFD0028CED400F01BF90AEB61
:2007C0000720FFF727FE002830D45720FFF702FE00F06AF847F30720C0B275E7FFF789FD41
:2007E000070023D4FFF7A2FD00281FD4AA2F0BD10020FFF782FE07464520FFF7EBFDAA20A6
:20080000FFF7BEFDF8B25FE7BB2F0FD14520FFF7E1FDBB20FFF7B4FD0020FFF7B1FDFFF7F8
:20082000E6FDFFF7EAFD0120FFF767FE25E7FFF77DFD0028FAD44A20FFF7CCFDFFF7D7FD17
:20084000FFF7DBFDFFF74EFC17E70000FC060020DDEA0CB0003000401000024010E000E055
:20086000C0D401000010014088030020BC04002084E100E044380240000002400810014069
:2008800004E100E0D410000800400008041001400C3C02400040000030380240FF8107000F
:2008A00000001E1075010008F8B269E5F0B572B6DFF8600400210160DFF85C04072101604A
:2008C00041F60701016007210160DFF850140A6842F001020A600A689207FCD58A6892083B
:2008E00092008A6000F081F80C238A681A42FCD10A6822F080720A6000BF4FF6FF763246F8
:2009000002234FF47A54DFF81854DFF81874B7FBF3F7AF421AD3DFF81074B7FBF3F7DFF8B3
:200920000CC467450FD205FB03F7B7FBF4F700F054F804D1B74206D23E461A4603E07F1E7D
:2009400000F04BF8F6D05B1C402BDED342EA861242F0A0624A6000F048F80A6842F08072A3
:200960000A600A6822F400220A6000F03EF80A689201FCD54FF434428A6000F034F841F607
:20098000030200F031F800F02EF840F20372026088688008800040F00200886000F025F8FB
:2009A000886800F00C000828FAD1486F40F001004867DFF87C0345F255510160062242605B
:2009C00000BF016040F6C411416000BF4CF6CC4101604AF6AA210160F0BD04FB07FCBCFB0A
:2009E000F3FCAC45704703220260BFF36F8FBFF34F8F7047DFF838034AF6AA21016062B64C
:200A000070477047704710B5DFF828034169006808404FF6E07111EA00040FD0B4FA84F0FA
:200A2000C0F11F00012181408C43DFF80C1301EB800050F8140C8047002CEFD110BD10B525
:200A400072B6DFF8F802042101600021DFF8F002DFF8F02240F82120491C6129FAD3DFF838
:200A6000E8124FF0FF320A604A60DFF8E0328B60DFF8DC120A604A608B60DFF8B81200239C
:200A80000B604B600B614A61DFF8C8224FF08033136053609360D360136153619361D361DA
:200AA000136253629362D362136353639363D363136453649364D3641365DFF89C22DFF84A
:200AC0009C3253614FF000539361DFF89432D3614FF020631360DFF88C3293600023D3602A
:200AE0005060BFF34F8F4FF4E020106283F3138883F311884FF4067010610020DFF8382266
:200B0000DFF8643242F82030401C0B28FAD3002008606FF07F404861DFF85042214617202C
:200B200000F00DF82146282000F009F8DFF840024FF4000101604FF48071416010BD30B5DB
:200B400000220B46DFF8F84145000BD5A0F18040092801D3002030BDDFF81812405C04EBFE
:200B6000800212E0002809D5C0F30720DFF8C82102EB800040F8141C143830BDC0B2512868
:200B800006D204EB800000F240021360BFF34F8F104630BD70B5DFF87C110A68002A40F03F
:200BA0008780EFF3108272B6DFF864311C6844F000741C601C6804F000741D6925F0007582
:200BC0001D615D6845F010055D60DFF8AC512D680326354203D05D6805F010052C435D68EC
:200BE00025F010055D6082F31088DFF89021128844B1103C37D0DFF88831E41A1DD0103CD0
:200C00003AD042E0802A09D0B2F5807F09D0B2F5007F09D0B2F5407F09D00BE042F25B02EC
:200C200034E042F25C0231E042F25E022EE042F25F022BE042F2510228E0B2F5807F06D0B0
:200C4000B2F5007F06D0B2F5407F06D008E042F27C021BE042F27E0218E042F27F0215E071
:200C600042F2710212E04FF400739A4214BF42F2511242F25E1209E04FF400739A4214BFED
:200C800042F2711242F27E1200E000223D4B1C4600E0241D03F13405AC4203D22588954258
:200CA000F7D10C600A68002A02D14FF0FF3070BD0968012805D0022805D003280AD0042857
:200CC000F3D1088870BD88782F49C1EB803000F1006070BDC878C00270BD0D283CBF2B496E
:200CE00051F82000002804D0A0F51671284A914201D3002070474108264A126803231A42CE
:200D00000CBF254A254A5118B1FBF0F07047000030380240F4070020003C024000380240C1
:200D200080A903000078690000E02E0081A9030000300040003C0140D006002010E000E0B8
:200D4000000000204700000880E100E0FFFF0F0080E200E000E400E004ED00E008101800CF
:200D60000000F8C00002FA05050A0008070A000800E100E07012000804000650227AFF1F2B
:200D8000F0FFFF0108110008000000083C110008E93F0F00083802400024F40080C3C90108
:200DA0008AB38446431A13F0030F2DD1072A24DD11F0030317D011F8013B0CF8013B521EA7
:200DC00021D011F003030ED011F8013B0CF8013B521E18D011F0030305D011F8013B0CF83B
:200DE000013B521E0FD051F8043B121F28BF4CF8043BF8D807D0121D091F11F8013B0CF8FE
:200E0000013B521EF9D1704711F0010F05D011F8013B0CF8013B521EF5D011F0020F0AD019
:200E200031F8023B0CF8013B521EECD01B0A0CF8013B521EE7D0121F30D31CF0030F27D00B
:200E40001CF0010F14D003E0000000000000000051F8043B0CF8013B1B0A2CF8023B1B0C3A
:200E60000CF8013B121FF3D218E000000000000051F8043B2CF8023B1B0C2CF8023B121FA2
:200E8000F6D20BE000000000000000000000000051F8043B4CF8043B121FF9D2121DB2D0E7
:200EA00012F0020F06D031F8023B0CF8013B1B0A0CF8013B12F0010F1CBF0B788CF800301A
:200EC0007047000000000000000000000000000032B1844651F8043B4CF8043B521EF9D169
:200EE00070470000000000000000000000000000884219D000D853E7B2B141EA000343EAB8
:200F0000020313F003031144024407D011F8013D02F8013D90EA020FF8D1704751F8043D3D
:200F200042F8043D9042F9D17047000010B5044604E054F8040B002100F08AF854F8042B87
:200F4000002AF6D1204610BD10B5044605E054F8041B54F8040BFFF723FF54F8042B002AF6
:200F6000F5D1204610BDF0B500F10801026801EBC202406802EBC000002300241D4601E0DF
:200F8000BE4207D1824200D1F0BD52F8046B52F8047BBF19A34204D151F8043B51F8044B03
:200FA000E418A342ECD0BE42EAD00DB913F9015B4FF0000C01E006F801CB002D18BFBE42B2
:200FC00018BFA342EDD0002D46BF13F801CB6D1C6D1EF0E710B50448044C02E050F8041BFA
:200FE0008847A042FAD110BDC8110008EC110008B2F1040C1AD440EA010313F0030F15D1F8
:2010000050F8042B51F8043BBCF1040C08D412BA1BBA9A42F4D08CBF01204FF0FF30704766
:2010200012BA1BBA9A42F6D10CF1040252B1034613F8010B11F801CB013A04D0B0EB0C007B
:20104000F6D070476046A0EB0C007047000000008446EAB110F0030F04D000F8011B521E50
:20106000F8D1704701F0FF0141EA012141EA0141121F28BF40F8041BFAD809D0121D00F804
:20108000011B521E04D000F8011B521E00D0017060467047000000000000000000000000CE
:2010A00030B40B781B4213D0401E10F8012F12420DD09A42F9D104460D4615F8013F14F826
:2010C000012F1B4204D09A42F7D00B78EDE7002030BC70470000000058020000B0040000E4
:2010E00060090000C012000080250000004B00000096000000E1000000C201000084030004
:201100000008070000100E005B2008205C2010305E2020405F203040512040407C201030A9
:201120007E2020407F203040712040405E212040512140407E2120407121404000000000AF
:2011400058020000B004000060090000C012000080250000004B00000096000000E10000DF
:2011600000C20100008403000008070000100E0072B6074880F30888064880F309884FF0ED
:20118000020080F31488BFF36F8FFFF744BA0000D0060020880300200000000000000000F9
:2011A00010F8013B11F8012B7A2B02D8612B28BF203B7A2A02D8612A28BF203A9A1A01D199
:2011C0001B42EDD1104670472D0F000804000000F407002000000000490F0008F400000030
:2011E0007C12000800070020000000000000000032B1401E10F8013F8B4202D0521EF9D1D0
:201200000020704700000000000000000000000010F8013B11F8012B9A1A01D11B42F7D1D3
:2012200010467047000000000000000000000000401E10F8012F8A4202D01242F9D100202F
:2012400070470000000000000000000000000000034611F8012B03F8012B1242F9D170475D
:20126000411E11F8012F1242FBD1081A7047000002030405060B0C0E0F00000033480321F6
:201280000160BFF34F8FBFF36F8F41F603010160BFF34F8FBFF36F8F03210160BFF34F8FBC
:2012A000BFF36F8F00214FF0006252F82120491C1029F8D340F2037101607047244805E0B9
:2012C0002449016000BF2449016000BFC1680029F6D4704721480168C903FCD4F121016040
:2012E000704710B5FFF7EAFFFFF7F4FF1C4CF02060604FF40170A060A06840F48030A060D2
:20130000FFF7E8FFA06820F00400A060FFF7B6FFFFF7D4FFFFF7DEFF05E01248206000BF0F
:201320001148206000BFE068C007F6D4FFF7D2FF4FF40070A0600D48E060E06840F00200B3
:20134000E060FFF7C7FFFFF799FFFEE7003C0240043C024023016745AB89EFCD0C3C0240D4
:10136000083C02403B2A19087F6E5D4CECAAFF0F37
:00000001FF
